:100000000C9462000C941B050C94F4040C948A006C
:100010000C948A000C948A000C948A000C948A0038
:100020000C948A000C948A000C948A000C948A0028
:100030000C948A000C948A000C948A000C948A0018
:100040000C94AA040C948A000C948A000C948A00E4
:100050000C948A000C948A000C948A000C948A00F8
:100060000C9442050C948A00000000002400270034
:100070002A0000000000250028002B0000000000DE
:1000800023002600290004040404040404040202DA
:100090000202020203030303030301020408102007
:1000A0004080010204081020010204081020000012
:1000B0000008000201000003040700000000000027
:1000C00000005D0611241FBECFEFD8E0DEBFCDBF1C
:1000D00011E0A0E0B1E0E8E3F5E102C005900D9287
:1000E000A63BB107D9F722E0A6EBB1E001C01D9213
:1000F000A036B207E1F710E0C2E6D0E004C02197D5
:10010000FE010E94850AC136D107C9F70E947B060D
:100110000C949A0A0C9400000895AF92BF92CF926B
:10012000DF92EF92FF920F931F93CF93DF936C01B7
:100130007B018B01040F151FEB015E01AE18BF0898
:10014000C017D10759F06991D601ED91FC9101904A
:10015000F081E02DC6010995892B79F7C501DF9162
:10016000CF911F910F91FF90EF90DF90CF90BF90B4
:10017000AF900895833081F028F4813099F0823077
:10018000A9F008958730A9F08830C9F08430B1F41F
:10019000809180008F7D03C0809180008F77809355
:1001A0008000089584B58F7784BD089584B58F7DD0
:1001B000FBCF8091B0008F778093B000089580913D
:1001C000B0008F7DF9CFCF93DF93282F30E0F90176
:1001D000E255FF4F8491F901E656FF4FD491F901A2
:1001E000EA57FF4FC491CC23A1F081110E94BA00BD
:1001F000EC2FF0E0EE0FFF1FE458FF4FA591B491F4
:10020000EC91ED2381E090E009F480E0DF91CF9163
:10021000089580E090E0FACF1F93CF93DF93282FCB
:1002200030E0F901E255FF4F8491F901E656FF4FA6
:10023000D491F901EA57FF4FC491CC23A9F0162FAE
:1002400081110E94BA00EC2FF0E0EE0FFF1FEE5874
:10025000FF4FA591B4918FB7F894EC91111108C09C
:10026000D095DE23DC938FBFDF91CF911F9108954E
:10027000DE2BF8CFCF93DF9390E0FC01E656FF4FE3
:1002800024918A579F4FFC0184918823D1F090E0FC
:10029000880F991FFC01E859FF4FA591B491FC010B
:1002A000EE58FF4FC591D49161110EC09FB7F894DD
:1002B0008C91E22FE0958E238C932881E223E883B2
:1002C0009FBFDF91CF9108958FB7F894EC91E22B07
:1002D000EC938FBFF6CF3FB7F89480912C029091AA
:1002E0002D02A0912E02B0912F0226B5A89B05C029
:1002F0002F3F19F00196A11DB11D3FBFBA2FA92FA5
:10030000982F8827BC01CD01620F711D811D911DA1
:1003100042E0660F771F881F991F4A95D1F708950D
:100320008F929F92AF92BF92CF92DF92EF92FF9205
:100330004B015C010E946B016B017C010E946B010F
:100340006C197D098E099F09683E734081059105EE
:10035000A8F321E0821A9108A108B10888EEC80E1E
:1003600083E0D81EE11CF11C81149104A104B104A6
:1003700029F7FF90EF90DF90CF90BF90AF909F90C4
:100380008F9008952FB7F8946091280270912902F8
:1003900080912A0290912B022FBF089508952091F9
:1003A000DD01260F3327331F21323105ECF4209174
:1003B0000102FC0190E080E0243069F082E00895C1
:1003C000A091DD012191AC0143545E4FA40FB52FE4
:1003D000B11D2C930196861798F38091DD01680F6B
:1003E0006093DD0180E0089581E0089508958FEF26
:1003F0009FEF08958FEF9FEF08958091B60190E0F1
:100400009195819591090895CF93DF93CB01EA01EE
:10041000642F0E94CF01CE01DF91CF910895CF9339
:10042000DF931F92CDB7DEB7698361E0CE010196FD
:100430000E94CF0181E090E00F90DF91CF9108956D
:1004400090E080E008958F929F92AF92BF920F93B9
:100450001F93CF93DF93CDB7DEB7A1970FB6F89474
:10046000DEBF0FBECDBF19A2423008F44AE08E01B4
:100470000F5D1F4F842E912CB12CA12CA50194014E
:100480000E94580AE62FB901CA01EA3044F5E05D3E
:10049000D801EE938D01232B242B252B79F790E0A7
:1004A00080E0109769F0FD0101900020E9F7319795
:1004B000AF014A1B5B0BBD0188E492E00E948D00F6
:1004C000A1960FB6F894DEBF0FBECDBFDF91CF91DE
:1004D0001F910F91BF90AF909F908F900895E95C0E
:1004E000D7CFFC0101900020E9F73197AF01481BFD
:1004F000590BBC0188E492E00C948D00CF93DF93FC
:10050000EC0160E08E810E940C0161E08E810E940E
:100510000C0160E08E810E940C018BE891E0019754
:10052000F1F7DF91CF910895CF92DF92EF92FF9292
:100530000F931F93CF93DF936C017C0187E0E80E4C
:10054000F11CD0E0C0E0062F10E0B8010C2E02C074
:10055000759567950A94E2F76170F70181917F01C3
:100560000E940C012196C430D10579F7C601DF91B4
:10057000CF911F910F91FF90EF90DF90CF900C944F
:100580007E02CF92DF92EF92FF920F931F93CF9351
:10059000DF93EC01F62E642F8C810E940C018D817B
:1005A0008F3F19F060E00E940C010F2D10E08F8545
:1005B00084FF25C06E0187E0C80ED11CF12CE12C10
:1005C000B8010E2C02C0759567950A94E2F7617028
:1005D000F60181916F010E940C01FFEFEF1AFF0AF3
:1005E00088E0E816F10461F7CE01DF91CF911F9109
:1005F0000F91FF90EF90DF90CF900C947E02B801A6
:1006000084E0759567958A95E1F7CE010E94940282
:100610006F2DCE01DF91CF911F910F91FF90EF9041
:10062000DF90CF900C94940240E0682F88E492E031
:100630000C94C10281E00E9414038BE39FE10197B7
:10064000F1F70895CF93DF93823029F49091570208
:1006500098609093570280935B0210925C0280E452
:1006600080935D0280E180935E0280E580935F026B
:1006700061E080914C020E943A0180914D028F3FCF
:1006800019F061E00E943A0161E080914E020E94FF
:100690003A01C8E4D2E09E012854324080915702CA
:1006A00084FD0BC084E090E021962817390744F4BC
:1006B00061E08E810E943A01EECF88E090E0F4CFB5
:1006C0008BE39DE00197F1F760E080914C020E947E
:1006D0000C0160E080914E020E940C0180914D025D
:1006E0008F3F19F060E00E940C018091570284FD59
:1006F00034C063E088E492E00E949402CBE4D6E444
:10070000CE010197F1F763E088E492E00E94940241
:100710002197F1F763E088E492E00E94940283E578
:1007200092E00197F1F762E088E492E00E9494027F
:100730008091570280620E94140384E080935802E3
:100740008CE00E9414030E941A0382E080935902F5
:1007500086E0DF91CF910C94140380620E94140311
:100760008BE496E40197F1F78091570280620E9432
:10077000140383E592E00197F1F7809157028062BC
:100780000E941403D5CF90915B02691710F06FEFB0
:10079000690FE62FF0E0E85BFD4F9489890F8068D0
:1007A0000C94140384E00E94E300019721F585E096
:1007B0000E94E3000197F9F4109235020E941A0397
:1007C00060E081E00E94C30380E491E00E94710236
:1007D00061E083E00E94C3038EE491E00E94710215
:1007E00083E00E94E300892BD9F768EE73E080E094
:1007F00090E00C949001089541E00E94C10281E0D4
:1008000090E008950F931F93CF93DF938B0128E01F
:10081000829FC001112480640E941403E801085FD4
:100820001F4F699188E492E00E94FC03C017D10732
:10083000C1F7DF91CF911F910F910895CF92DF9271
:10084000EF92FF92C82ED12CF12CE12C8A3020F4AB
:1008500089E591E00E9471024AE0C701B601FF906C
:10086000EF90DF90CF900C9423021F93CF93DF93F0
:1008700085ED8093BC008091B9019091BA01A0915F
:10088000BB01B091BC010796A11DB11D23E0B69537
:10089000A795979587952A95D1F72091BC0024FDBF
:1008A00003C01092010252C04091B9015091BA01A7
:1008B0006091BB017091BC01452B462B472B69F31E
:1008C0000097A105B10541F025E32A95F1F7000055
:1008D0000197A109B109E1CF8091B801C1E0C093AE
:1008E000B701882399F1D091B8001091BA00809196
:1008F000BC008A7B8093BC0060E082E10E940C0116
:1009000060E083E10E940C0110920102C093030297
:100910001092020261E082E10E940C0161E083E139
:100920000E940C018091B9008E7F8093B900809164
:10093000B9008D7F8093B90088E48093B80085E486
:100940008093BC001093BA00D093B800DF91CF9190
:100950001F9108951F920F920FB60F9211242F939B
:100960003F938F939F93AF93BF9380912802909171
:100970002902A0912A02B0912B023091270223E094
:10098000230F2D3758F50196A11DB11D2093270285
:100990008093280290932902A0932A02B0932B02FD
:1009A00080912C0290912D02A0912E02B0912F02E5
:1009B0000196A11DB11D80932C0290932D02A0934E
:1009C0002E02B0932F02BF91AF919F918F913F91D3
:1009D0002F910F900FBE0F901F90189526E8230FB0
:1009E0000296A11DB11DD2CF1F920F920FB60F928A
:1009F00011242F933F934F935F936F937F938F9324
:100A00009F93AF93BF93EF93FF93E0913201F091E7
:100A100033010995FF91EF91BF91AF919F918F9114
:100A20007F916F915F914F913F912F910F900FBEEA
:100A30000F901F9018951F920F920FB60F921124CE
:100A40002F933F934F935F936F937F938F939F93D6
:100A5000AF93BF93EF93FF93E0913001F091310199
:100A60000995FF91EF91BF91AF919F918F917F91E8
:100A70006F915F914F913F912F910F900FBE0F900B
:100A80001F9018951F920F920FB60F9211242F935B
:100A90003F934F935F936F937F938F939F93AF9306
:100AA000BF93EF93FF938091B900887F803609F45C
:100AB0004AC0F0F5883209F4A5C018F5803109F470
:100AC00099C0B8F4882309F4F5C0883009F492C0BD
:100AD000FF91EF91BF91AF919F918F917F916F9116
:100AE0005F914F913F912F910F900FBE0F901F90EC
:100AF0001895883109F486C0803251F7809300023E
:100B000014C0803409F49BC040F48033B9F38833B7
:100B1000F9F68093000285ECAEC0803509F483C0FD
:100B2000883509F494C0883499F60E943504D0CFF2
:100B3000883909F48AC038F5883729F050F48836A6
:100B400011F0803729F683E0809301021092FF01B3
:100B500055C0883809F479C0803919F0803809F017
:100B6000B7CF8091FF01803208F06FC0E091FF01A4
:100B700081E08E0F8093FF018091BB00F0E0E15295
:100B8000FE4F80833BC0803B39F0D0F4803A09F4BB
:100B900077C0883A09F09CCF84E0809301021092DC
:100BA000DE011092DD01F0E0E0E009958091DD01C9
:100BB00081110FC081E08093DD011092BD0109C059
:100BC000803C09F4A8CF883C09F4A5CF883B09F004
:100BD0007FCFE091DE0181E08E0F8093DE01F0E0B7
:100BE000E354FE4F80818093BB009091DE018091A1
:100BF000DD0129C0809126028093BB0085EC8093A3
:100C0000BC0066CF9091250280912402981758F578
:100C1000E091250281E08E0F80932502F0E0EC5FE9
:100C2000FD4F8081E9CFE091250281E08E0F809316
:100C300025028091BB00F0E0EC5FFD4F8083909136
:100C40002502809124029817C8F285E8D8CFE09158
:100C5000250281E08E0F809325028091BB00F0E099
:100C6000EC5FFD4F80838091030281115ECF81E0B4
:100C70008093020284EA8093BC001092010228CF84
:100C800085EC8093BC00109201028091FF018032BC
:100C900030F4E091FF01F0E0E152FE4F10826091EC
:100CA000FF0170E08FED91E0F0E0E0E00995109237
:100CB000FF010ECF1092000238CFE8E4F2E0138279
:100CC000128288E391E0918380838CE084838FEFAC
:100CD00085838BE086838AE0878389E0808788E04C
:100CE000818787E082871386148615861686178685
:100CF00081E00C942203CF93DF9300D000D000D08A
:100D0000CDB7DEB7789484B5826084BD84B5816048
:100D100084BD85B5826085BD85B5816085BD8091C6
:100D20006E00816080936E0010928100809181003E
:100D30008260809381008091810081608093810036
:100D4000809180008160809380008091B1008460F8
:100D50008093B1008091B00081608093B000809159
:100D60007A00846080937A0080917A008260809318
:100D70007A0080917A00816080937A0080917A0075
:100D8000806880937A001092C10060E083E00E9446
:100D90003A0160E084E00E943A0160E085E00E9450
:100DA0003A0161E082E00E943A0161E086E00E943F
:100DB0003A0182E00E94220368E271E080E00E9432
:100DC000020460E271E081E00E94020468E171E0E7
:100DD00082E00E94020460E171E083E00E9402046C
:100DE00068E071E084E00E94020460E071E085E068
:100DF0000E94020482E00E9414038BE39FE10197AA
:100E0000F1F70E941A0360E080E00E94C3038BE5C3
:100E100091E00E94710261E080E00E94C3038CE6D1
:100E200091E00E94710283E00E94E300892BD9F3D4
:100E300083E00E94E300892BD9F764EF71E080E042
:100E400090E00E9490010E941A0360E083E00E94FB
:100E5000C3038DE791E00E94710268EE73E080E0C9
:100E600090E00E94900188EE882E83E0982EA12CBD
:100E7000B12C9BE3692E77247394E9988CE890E079
:100E800090933301809332017092340210923B02AE
:100E900010923C0210923D0210923E0210924702C4
:100EA00010924602109245021E821D820E941A0371
:100EB00060E080E00E94C30388E891E00E94710234
:100EC000809147020E941E048FE891E00E94710207
:100ED000809146020E941E048FE891E00E947102F8
:100EE000809145020E941E0410913402112309F4DE
:100EF00021C19E81911154C061E08D81895F0E9462
:100F0000C30360E088E492E00E94FC0384E00E9456
:100F1000E300892B81F084E00E94E300892BD9F75C
:100F2000AD81AD5FAD8310923402FD81F730E0F208
:100F300026E02D83D9CF85E00E94E300892B49F07C
:100F400085E00E94E300892BD9F7BD81B350BD83B2
:100F5000EACF83E00E94E300892B39F30E94C201AB
:100F60006B017C01C0923002D0923102E0923202D9
:100F7000F092330283E00E94E300892B69F00E9423
:100F8000C2016C197D098E099F09613D7740810579
:100F9000910580F370923502109234021E83C5CF02
:100FA00084E00E94E300F090470200914602109115
:100FB0004502892B09F495C08D81F394882309F4A7
:100FC0009AC09D810F5F933009F49EC01F5F1093FC
:100FD00045021092340268EC70E080E090E00E94DC
:100FE00090018091470297EE980F913E08F08FC0D4
:100FF000109247028091460293EC980F9D3B08F0B7
:101000008DC0109246028091450293EC980F9D3B53
:1010100008F08AC01092450283E00E94E300892B09
:1010200009F10E94C2016B017C01C0923002D09292
:101030003102E0923202F092330283E00E94E30038
:10104000892B69F00E94C2016C197D098E099F09E4
:10105000613D77408105910580F3709235021092D1
:1010600034021E820E94C2016B017C01C0923602D2
:10107000D0923702E0923802F092390280913B021E
:1010800090913C02A0913D02B0913E0216012701D1
:10109000281A390A4A0A5B0A24EF221621E032068E
:1010A0004104510408F420CF61E08D81895F0E94E2
:1010B000C30360E088E492E00E94FC0388EE2816F7
:1010C00083E038064104510408F40ECFC0923B027D
:1010D000D0923C02E0923D02F0923E021092340225
:1010E00003CF85E00E94E300892B09F47ACFAD811C
:1010F000A11104C0FA94F09247026BCFBD81115048
:10110000B33009F064CF01500093460262CF8B3FA9
:1011100008F470CFE8E1E09347026CCF8B3F08F40E
:1011200072CF609246026FCF8B3F08F475CF60920A
:10113000450272CF7092340280913502882309F4FF
:10114000B5CE0E941A0360E082E00E94C30381E9E9
:1011500091E00E94710283E00E94E300892BD9F79D
:1011600064EF71E080E090E00E94900120914702DE
:101170004CE38091460290E0249F800D911D112444
:10118000489F9001499F300D1124E0904502E20EE6
:10119000F32EF11CF0924402E09243020E94C2013D
:1011A000A50194010E94580A0F2C000C000B110B92
:1011B000E20EF31E041F151FE0923F02F092400260
:1011C000009341021093420261E086E00E943A01DE
:1011D000E4EBF0E08491833009F427C150F48130CE
:1011E000E1F0823009F41BC161E086E00E940C014D
:1011F00019C0873009F425C1883009F42BC1843027
:1012000099F780918000806280938000A6E9B0E029
:10121000B0938B00A0938A0005C084B5806884BD1C
:1012200086E987BDE2EDF3E0F0933301E09332010C
:1012300080916900837F846080936900E99A1092AD
:101240003B0210923C0210923D0210923E02C0906E
:101250003F02D0904002E0904102F09042020E9492
:10126000C201A50194010E94580AC21AD30AE40AD5
:10127000F50AC701B60120E13EE040E050E00E94DF
:10128000580A209347022CE330E040E050E00E94EF
:10129000580A209346026093450289819A81AB8166
:1012A000BC81C816D906EA06FB0609F450C00E94A4
:1012B0001A0360E080E00E94C30388E891E00E9486
:1012C0007102809147020E941E048FE891E00E9403
:1012D0007102809146020E941E048FE891E00E94F4
:1012E0007102809145020E941E04A0E5B0E0A701B2
:1012F00096010E947A0A209143023091440250E004
:1013000040E00E94580A822F20933A0265E00E9432
:101310004C0A492E082F10E01A82198261E0898157
:101320000E94C303A981BA81A017B1070CF49BC026
:10133000642D411099C0E981FA813196FA83E983DD
:101340000E171F075CF7C982DA82EB82FC82CD2878
:10135000CE28CF2809F094C00E941A0360E082E0F2
:101360000E94C3038EE991E00E94710261E083E074
:101370000E94C3038BEA91E00E94710261E086E063
:101380000E943A0160E086E00E940C010E94C201C6
:1013900060933B0270933C0280933D0290933E0227
:1013A00083E00E94E300892B09F063C00E94C20120
:1013B0006B017C01C0923602D0923702E092380273
:1013C000F092390280913B0290913C02A0913D0243
:1013D000B0913E0216012701281A390A4A0A5B0A0F
:1013E000F5EF2F16F1E03F0641045104C8F261E029
:1013F00082E00E940C0129EE221623E0320641040D
:10140000510470F260E082E00E940C01C0923B0245
:10141000D0923C02E0923D02F0923E02C1CF84B5F0
:10142000806284BD86E988BDFDCE809180008068A1
:101430008093800086E990E09093890080938800F3
:10144000F1CE8091B00080688093B00086E98093EF
:10145000B300E8CE8091B00080628093B00086E94E
:101460008093B400DFCE65E088E492E00E94FC0344
:1014700062CF83E00E94E300892BD9F710923502F6
:10148000809135028111E3CE80E090E0892B09F450
:10149000F4CC0E940000EFCC991B79E004C0991FA6
:1014A000961708F0961B881F7A95C9F780950895BE
:1014B000A1E21A2EAA1BBB1BFD010DC0AA1FBB1F58
:1014C000EE1FFF1FA217B307E407F50720F0A21BCA
:1014D000B30BE40BF50B661F771F881F991F1A9437
:1014E00069F760957095809590959B01AC01BD0161
:1014F000CF0108950E948B0AA59F900DB49F900D77
:10150000A49F800D911D11240895EE0FFF1F0590DB
:10151000F491E02D0994A29FB001B39FC001A39F55
:10152000700D811D1124911DB29F700D811D11241C
:08153000911D0895F894FFCF0E
:101538001F1F1F1F1F1F1F1F1E1E1E1E1E1E1E1EBB
:101548001C1C1C1C1C1C1C1C1818181818181818F3
:101558001010101010101010040E150404040404C8
:101568008C008C0000000000FC038D002002CE01DE
:101578002120456D657267656E6379202100546985
:101588006D65722053746F7000300057656C636F1F
:101598006D6520746F205556426F78005072732025
:1015A8004D656E7520746F206E657874004D656E9C
:1015B800752053746172740054696D653A20003A5D
:1015C8000054696D65722020537461727400546907
:1015D8006D65722046696E69736800507265737331
:0615E800204D656E750048
:00000001FF
