:100000000C9462000C94A5040C947E040C948A0059
:100010000C948A000C948A000C948A000C948A0038
:100020000C948A000C948A000C948A000C948A0028
:100030000C948A000C948A000C948A000C948A0018
:100040000C9434040C948A000C948A000C948A005A
:100050000C948A000C948A000C948A000C948A00F8
:100060000C948A000C948A000000000024002700F1
:100070002A0000000000250028002B0000000000DE
:1000800023002600290004040404040404040202DA
:100090000202020203030303030301020408102007
:1000A0004080010204081020010204081020000012
:1000B0000008000201000003040700000000000027
:1000C0000000D90811241FBECFEFD8E0DEBFCDBF9E
:1000D00011E0A0E0B1E0EEE1F3E102C005900D9285
:1000E000A63CB107D9F721E0A6ECB1E001C01D9212
:1000F000AE3FB207E1F710E0C2E6D0E004C02197BE
:10010000FE010E947309C136D107C9F70E94CC04D1
:100110000C948D090C940000833081F028F4813018
:1001200099F08230A1F008958730A9F08830B9F0B5
:100130008430D1F4809180008F7D03C08091800055
:100140008F7780938000089584B58F7702C084B53F
:100150008F7D84BD08958091B0008F7703C080911A
:10016000B0008F7D8093B0000895CF93DF93282F48
:1001700030E0F901E255FF4F8491F901E656FF4F57
:10018000D491F901EA57FF4FC491CC2391F081112A
:100190000E948C00EC2FF0E0EE0FFF1FE458FF4FA1
:1001A000A591B491EC91ED2381E090E021F480E001
:1001B00002C080E090E0DF91CF9108951F93CF932C
:1001C000DF93282F30E0F901E255FF4F8491F901C8
:1001D000E656FF4FD491F901EA57FF4FC491CC2363
:1001E000C1F0162F81110E948C00EC2FF0E0EE0F71
:1001F000FF1FEE58FF4FA591B4919FB7F8941111CE
:1002000004C08C91D095D82302C0EC91DE2BDC93F6
:100210009FBFDF91CF911F910895AF92BF92CF9270
:10022000DF92EF92FF920F931F93CF93DF938C0196
:100230005C018EE0A80EB11CC42ED12CC0E0D0E031
:10024000E62EF12CCC15DD0579F0B7010C2E02C09D
:10025000759567950A94E2F76170F50181915F01E8
:100260000E94DE002196EECF61E0F80185850E94B4
:10027000DE0060E0F8018585DF91CF911F910F913D
:10028000FF90EF90DF90CF90BF90AF900C94DE0086
:10029000CF93DF9390E0FC01E656FF4F2491FC01E1
:1002A000EA57FF4F8491882361F190E0880F991FEE
:1002B000FC01E859FF4FC591D491FC01EE58FF4F66
:1002C000A591B491611109C09FB7F89488812095D8
:1002D00082238883EC912E230BC0623061F49FB798
:1002E000F8948881322F309583238883EC912E2BCC
:1002F0002C939FBF06C08FB7F894E8812E2B2883DC
:100300008FBFDF91CF9108953FB7F8948091E301BB
:100310009091E401A091E501B091E60126B5A89B7A
:1003200005C02F3F19F00196A11DB11D3FBFBA2F87
:10033000A92F982F8827820F911DA11DB11DBC01E7
:10034000CD0142E0660F771F881F991F4A95D1F7AC
:1003500008958F929F92AF92BF92CF92DF92EF92C9
:10036000FF926B017C010E9484014B015C01C1146E
:10037000D104E104F104F1F00E948401DC01CB011D
:1003800088199909AA09BB09883E9340A105B105BE
:1003900070F321E0C21AD108E108F10888EE880E56
:1003A00083E0981EA11CB11CC114D104E104F10426
:1003B00019F7DDCFFF90EF90DF90CF90BF90AF9017
:1003C0009F908F9008952FB7F8946091DF017091FE
:1003D000E0018091E1019091E2012FBF089508951D
:1003E000CF92DF92EF92FF920F931F93CF93DF9301
:1003F0006C017A018B01C0E0D0E0CE15DF0581F001
:10040000D8016D918D01D601ED91FC910190F081A3
:10041000E02DC6010995892B11F02196EECF7E01C2
:10042000C701DF91CF911F910F91FF90EF90DF9067
:10043000CF900895FC0186898F3F79F02185328520
:10044000662319F0232B31F403C02130310511F458
:1004500061E001C060E00C94DE000895EF92FF922D
:100460001F93CF93DF93EC01162F7A0161E0812F68
:100470000E9448011E8BFA86E986E881F98104848E
:10048000F585E02D60E0CE01DF91CF911F91FF90C7
:10049000EF9009940F931F93CF93DF93EC01162FE6
:1004A000042F61E0413009F060E08B850E94DE009E
:1004B0008C858F3F19F060E00E94DE00023081F0F1
:1004C0008C8184FF02C048E00CC0612F70E084E0A2
:1004D000759567958A95E1F744E0CE010E940D017C
:1004E00044E0612FCE01DF91CF911F910F910C94C9
:1004F0000D01DC01ED91FC910684F785E02D41E0D2
:10050000099581E090E00895DC01ED91FC9106846D
:10051000F785E02D40E009940F931F93CF93DF936D
:10052000CDB7DEB728970FB6F894DEBF0FBECDBFAC
:10053000009134011091350120913601309137013D
:100540000D831E832F833887009138011091390164
:1005500020913A0130913B0109831A832B833C831C
:100560009091EE01691710F06FEF690F4091EF0164
:10057000262F30E0FE01E20FF31F403121F49430CA
:1005800011F4618101C06581680F606887EE91E0B8
:1005900028960FB6F894DEBF0FBECDBFDF91CF9186
:1005A0001F910F910C948402EF92FF920F931F936F
:1005B000CF93DF938B01877098E0899FB00111245E
:1005C000606487EE91E00E94840283E790E00197E7
:1005D000F1F7E801085F1F4F8BE9E82EF12C6991D4
:1005E00087EE91E00E947902C7010197F1F7C017E9
:1005F000D107A9F7DF91CF911F910F91FF90EF9055
:10060000089561E00E9484028BE39FE10197F1F776
:1006100008950F931F93CF93DF93EC01423018F0AE
:100620008C8188608C834F836887222329F0413036
:1006300019F48C8184608C8364E670E080E090E043
:100640000E94A9016C8164FD31C0E881F9810684B2
:10065000F785E02D42E063E0CE0109958BE496E456
:100660000197F1F7E881F9810684F785E02D42E0F2
:1006700063E0CE01099503E512E0C8010197F1F7A7
:10068000E881F9810684F785E02D42E063E0CE0140
:100690000995C8010197F1F7E881F9810684F7858A
:1006A000E02D42E062E0CE01099517C06062CE0104
:1006B0000E9484028BE496E40197F1F76C816062FA
:1006C000CE010E94840203E512E0C8010197F1F710
:1006D0006C816062CE010E948402C8010197F1F72B
:1006E0006C816062CE010E9484028BEE90E00197E3
:1006F000F1F784E08D836CE0CE010E948402CE018C
:100700000E94010382E08E8366E0CE010E94840293
:10071000E881F9810484F585E02D6FEFCE01DF914A
:10072000CF911F910F91099408950895089580E045
:1007300090E00895009769F0FC0101900020E9F72E
:100740003197AF01481B590BBC0187EE91E00C9427
:10075000F00180E090E008950C949A0384E00E94F8
:10076000B500019731F585E00E94B500019709F5C4
:100770001092CB0187EE91E00E94010360E081E0DE
:100780000E948C0280E591E00E94AC0361E083E06E
:100790000E948C028EE591E00E94AC0383E00E94EF
:1007A000B500892BD9F768EE73E080E090E00C94F7
:1007B000A90108958F929F92AF92BF920F931F93BA
:1007C000CF93DF93CDB7DEB7A1970FB6F894DEBF16
:1007D0000FBECDBF19A2423008F44AE08E010F5D72
:1007E0001F4F842E912CA12CB12CA50194010E94A5
:1007F0004609E62FB901CA0101501109EA3014F483
:10080000E05D01C0E95CD801EC93232B242B252B60
:1008100061F7C8010E949A03A1960FB6F894DEBF53
:100820000FBECDBFDF91CF911F910F91BF90AF90C1
:100830009F908F900895CF92DF92EF92FF92C82EF3
:10084000D12CE12CF12C8A3020F489E691E00E9431
:10085000AC034AE0C701B601FF90EF90DF90CF9064
:100860000C94DA030E9488091F920F920FB60F9220
:1008700011242F933F938F939F93AF93BF938091B6
:10088000DF019091E001A091E101B091E20130918E
:10089000DE0123E0230F2D3720F40196A11DB11DA9
:1008A00005C026E8230F0296A11DB11D2093DE018D
:1008B0008093DF019093E001A093E101B093E20106
:1008C0008091E3019091E401A091E501B091E601EE
:1008D0000196A11DB11D8093E3019093E401A093C3
:1008E000E501B093E601BF91AF919F918F913F9148
:1008F0002F910F900FBE0F901F9018951F920F927F
:100900000FB60F9211242F933F934F935F936F93E2
:100910007F938F939F93AF93BF93EF93FF93E09158
:100920003201F09133010995FF91EF91BF91AF91A1
:100930009F918F917F916F915F914F913F912F91F7
:100940000F900FBE0F901F9018951F920F920FB629
:100950000F9211242F933F934F935F936F937F9345
:100960008F939F93AF93BF93EF93FF93E0913001E9
:10097000F09131010995FF91EF91BF91AF919F9156
:100980008F917F916F915F914F913F912F910F9038
:100990000FBE0F901F901895CF93DF93CDB7DEB7A2
:1009A00027970FB6F894DEBF0FBECDBF789484B5FD
:1009B000826084BD84B5816084BD85B5826085BD5B
:1009C00085B5816085BD80916E00816080936E00E9
:1009D00010928100809181008260809381008091DB
:1009E000810081608093810080918000816080938C
:1009F00080008091B10084608093B1008091B0004C
:100A000081608093B00080917A00846080937A0046
:100A100080917A00826080937A0080917A00816070
:100A200080937A0080917A00806880937A00109297
:100A3000C10060E083E00E94480160E084E00E9421
:100A4000480160E085E00E94480161E082E00E9488
:100A5000480161E086E00E94480120E042E060E158
:100A600087EE91E00E94090368E271E080E00E9455
:100A7000D40260E271E081E00E94D40268E171E09A
:100A800082E00E94D40260E171E083E00E94D4021F
:100A900068E071E084E00E94D40260E071E085E0EB
:100AA0000E94D40262E087EE91E00E9484028BE310
:100AB0009FE10197F1F76FEF87EE91E00E941A0234
:100AC00087EE91E00E94010360E080E00E948C02CA
:100AD0008BE691E00E94AC0361E080E00E948C0212
:100AE0008CE791E00E94AC0383E00E94B500892B63
:100AF000D9F383E00E94B500892BD9F764EF71E048
:100B000080E090E00E94A90187EE91E00E9401033D
:100B100060E083E00E948C028DE891E00E94AC03CB
:100B200068EE73E080E090E00E94A90198EE892EC3
:100B300093E0992EA12CB12C1BE38FEE282E81E09F
:100B4000382EE998309233012092320181E080936F
:100B5000CA011092D1011092D2011092D3011092C9
:100B6000D4011092DD011092DC011092DB011F8292
:100B70001D8287EE91E00E94010360E080E00E9408
:100B80008C0288E991E00E94AC038091DD010E9413
:100B90001B048FE991E00E94AC038091DC010E946C
:100BA0001B048FE991E00E94AC038091DB010E945D
:100BB0001B048091CA01882309F43AC1CF80C11077
:100BC00059C061E08D81895F0E948C0260E087EEF0
:100BD00091E00E94790284E00E94B500892B49F0DF
:100BE00084E00E94B500892BD9F72D812D5F2D83DC
:100BF0000DC085E00E94B500892B59F085E00E9468
:100C0000B500892BD9F73D8133503D831092CA013D
:100C10002AC083E00E94B500892B29F10E94E301DC
:100C20006B017C016093C6017093C7018093C8017A
:100C30009093C90183E00E94B500892B81F00E9446
:100C4000E301DC01CB018C199D09AE09BF09813D8F
:100C50009740A105B10570F381E08093CB0110921C
:100C6000CA0151E05F836D81663008F4A2CF26E0AF
:100C70002D839FCF84E00E94B500892BE1F0CD80C9
:100C8000C11004C08091DD018F5F20C02D81233011
:100C900021F48091DC018F5F22C08091DB018F5FA6
:100CA0008093DB011092CA0168EC70E080E090E074
:100CB0000E94A9011BC085E00E94B500892BB1F0FC
:100CC000CD80C11006C08091DD0181508093DD018F
:100CD000E9CF2D81233031F48091DC018150809364
:100CE000DC01E0CF8091DB018150DACF8091DD0122
:100CF00097EE980F913E18F41092DD0105C08B3FDE
:100D000018F038E13093DD018091DC0193EC980F0D
:100D10009D3B18F41092DC0104C08B3F10F010933F
:100D2000DC018091DB0193EC980F9D3B18F410924D
:100D3000DB0104C08B3F10F01093DB0183E00E94C5
:100D4000B500892B21F10E94E3016B017C016093C6
:100D5000C6017093C7018093C8019093C90183E0D5
:100D60000E94B500892B81F00E94E301DC01CB01D8
:100D70008C199D09AE09BF09813D9740A105B105B8
:100D800070F381E08093CB011092CA011F820E9410
:100D9000E3016093CC017093CD018093CE019093D9
:100DA000CF01C090D101D090D201E090D301F0905A
:100DB000D401DC01CB018C199D09AE09BF09843F28
:100DC0009140A105B10508F4F4CE61E08D81895F01
:100DD0000E948C0260E087EE91E00E94790280918F
:100DE000CC019091CD01A091CE01B091CF01409165
:100DF000D1015091D2016091D3017091D4016C0165
:100E00007D01C41AD50AE60AF70A28EEC21623E0C5
:100E1000D206E104F10408F4CCCE8093D101909382
:100E2000D201A093D301B093D4011092CA01C1CED4
:100E300081E08093CA018091CB01882309F499CE87
:100E400087EE91E00E94010360E082E00E948C0244
:100E500081EA91E00E94AC0383E00E94B500892BF7
:100E6000D9F764EF71E080E090E00E94A901209141
:100E7000DD018091DC0190E03CE3239F800D911D1A
:100E800011242CE3289FA001299F500D112480914B
:100E9000DB01480F511D5E834D835093DA0140936F
:100EA000D9010E94E301A50194010E944609CD8069
:100EB000DE80C601DD0CAA0BBB0B820F931FA41FA3
:100EC000B51F8093D5019093D601A093D701B0931D
:100ED000D80161E086E00E944801E4EBF0E0E49193
:100EE000E33019F150F4E130D1F0E230E1F584B5AE
:100EF000806284BD86E988BD3AC0E73011F1E830F0
:100F000049F1E43081F58091800080628093800017
:100F100086E990E090938B0080938A0028C084B586
:100F2000806884BD86E987BD22C08091800080688A
:100F30008093800086E990E09093890080938800F8
:100F400016C08091B00080688093B00086E98093DD
:100F5000B3000DC08091B00080628093B00086E93C
:100F60008093B40004C061E086E00E94DE008EEA57
:100F700093E0909333018093320180916900837FE5
:100F8000846080936900E99A1092D1011092D20195
:100F90001092D3011092D40105E0C090D501D090F9
:100FA000D601E090D701F090D8010E94E301A5019D
:100FB00094010E944609C21AD30AE40AF50AC7013D
:100FC000B60120E13EE040E050E00E944609209357
:100FD000DD012CE330E040E050E00E944609209320
:100FE000DC016093DB0129813A814B815C81C2166F
:100FF000D306E406F50609F460C087EE91E00E948E
:10100000010360E080E00E948C0288E991E00E9488
:10101000AC038091DD010E941B048FE991E00E94E6
:10102000AC038091DC010E941B048FE991E00E94D7
:10103000AC038091DB010E941B04A0E5B0E0A70196
:1010400096010E9468092091D9013091DA0140E0AF
:1010500050E00E9446092093D0011A8219828091A3
:10106000D001602F0E943A0990E049815A8184178B
:101070009507FCF061E089810E948C028091D0018B
:10108000602F0E943A09692F90E0A981BA81A817C0
:10109000B9071CF0662331F001C065E087EE91E0EE
:1010A0000E94790229813A812F5F3F4F3A83298339
:1010B000D6CFC982DA82EB82FC82CD28CE28CF2817
:1010C00009F06BC087EE91E00E94010360E082E0CE
:1010D0000E948C028EEA91E00E94AC0361E083E002
:1010E0000E948C028BEB91E00E94AC0361E086E0F1
:1010F0000E94480160E086E00E94DE000E94E30159
:101100006093D1017093D2018093D3019093D40165
:1011100083E00E94B500892BC9F50E94E3016B01B1
:101120007C016093CC017093CD018093CE019093AC
:10113000CF018091D1019091D201A091D301B091C2
:10114000D40126013701481A590A6A0A7B0A35EF89
:10115000431631E0530661047104D0F261E082E08D
:101160000E94DE0049EE441643E054066104710417
:1011700078F260E082E00E94DE00C092D101D0925D
:10118000D201E092D301F092D401C2CF83E00E9459
:10119000B500892BD9F71092CB018091CB01811139
:1011A000FCCE80E090E0892B09F4CBCC0E940000BB
:1011B000C4CCCF93DF931092EA011092E90180E44E
:1011C00091E09093E8018093E7018CE08093F20135
:1011D0008FEF8093F3018BE08093F4018AE080939A
:1011E000F50189E08093F60188E08093F70187E0BC
:1011F0008093F8011092F9011092FA011092FB010C
:101200001092FC01C5EFD1E061E089910E94480194
:1012100081E0C93FD807C1F761E08091F2010E94E7
:1012200048018091F3018F3F19F061E00E9448016D
:1012300061E08091F4010E9448011092EB0160E0AE
:101240008091F2010E94DE0060E08091F4010E9432
:10125000DE008091F3018F3F19F060E00E94DE0014
:101260008FEF8093FD011092F1011092F001DF9158
:10127000CF910895991B79E004C0991F961708F043
:10128000961B881F7A95C9F780950895A1E21A2EBA
:10129000AA1BBB1BFD010DC0AA1FBB1FEE1FFF1F1A
:1012A000A217B307E407F50720F0A21BB30BE40B6A
:1012B000F50B661F771F881F991F1A9469F76095B1
:1012C0007095809590959B01AC01BD01CF0108956B
:1012D0000E947909A59F900DB49F900DA49F800D49
:1012E000911D11240895EE0FFF1F0590F491E02D3C
:1012F0000994A29FB001B39FC001A39F700D811DEF
:101300001124911DB29F700D811D1124911D08950E
:0E13100081E090E0F8940C948D09F894FFCFE2
:10131E001F1F1F1F1F1F1F1F1E1E1E1E1E1E1E1ED7
:10132E001C1C1C1C1C1C1C1C18181818181818180F
:10133E001010101010101010040E150404040404E4
:10134E00EF01EF0100401454004010500000000067
:10135E007902F0019703960309032E021A024A023C
:10136E002120456D657267656E6379202100546991
:10137E006D65722053746F7000300057656C636F2B
:10138E006D6520746F205556426F78005072732031
:10139E004D656E7520746F206E657874004D656EA8
:1013AE00752053746172740054696D653A20003A69
:1013BE000054696D65722020537461727400546913
:1013CE006D65722046696E6973680050726573733D
:0613DE00204D656E750054
:00000001FF
